:020000040800F2
:1000000000000824D9020008290300082903000879
:10001000713E0108290300082903000800000000C0
:10002000000000000000000000000000290300089C
:10003000290300080000000029030008894D010879
:100040001D7501082903000829030008BD410108A6
:1000500029030008290300082903000829030008D0
:100060002903000829030008290300087149000832
:1000700029030008290300082903000829030008B0
:1000800029030008F1740108290300082903000866
:100090002903000829030008290300082903000890
:1000A0002903000829030008290300082903000880
:1000B0002903000829030008290300082903000870
:1000C0002903000829030008290300082903000860
:1000D000290300085571010829030008A9720108C5
:1000E0008D51000895410108000000002903000817
:1000F000290300082903000829030008E573010803
:100100002903000829030008D94E01082903000823
:100110002903000829030008A94E01082903000843
:1001200029030008290300082903000829030008FF
:1001300029030008290300082903000829030008EF
:1001400000000000000000000000000000000000AF
:10015000612000082903000829030008290300087A
:1001600029030008290300082903000829030008BF
:1001700029030008290300082903000800000000E3
:10018000290300082903000829030008290300089F
:10019000290300082903000829030008290300088F
:1001A000290300082903000829030008290300087F
:1001B000290300082903000829030008290300086F
:1001C000290300082903000829030008290300085F
:1001D000290300082903000829030008290300084F
:1001E000290300082903000829030008290300083F
:1001F000290300082903000829030008290300082F
:10020000290300082903000829030008290300081E
:10021000290300082903000829030008290300080E
:100220002903000829030008290300080000000032
:100230002903000829030008000000002903000822
:1002400029030008290300082903000829030008DE
:1002500029030008290300082903000829030008CE
:1002600029030008290300082903000829030008BE
:1002700029030008290300082903000800000000E2
:1002800029030008290300082903000800000000D2
:08029000000000002903000832
:1002980010B5054C237833B9044B13B10448AFF3B8
:1002A80000800123237010BD4015002400000000C9
:1002B8009486010808B5034B1BB103490348AFF303
:1002C800008008BD00000000441500249486010841
:1002D800DFF834D000F026F80C480D490D4A002309
:1002E80002E0D458C4500433C4188C42F9D30A4AE3
:1002F8000A4C002301E013600432A242FBD317F03A
:10030800F9FD13F00FFA70470000082400000024DC
:1003180040040024782003084015002430C5012437
:10032800FEE700002749284AD1F8883043F47003D3
:1003380010B4C1F88830136803F00F03062B05D8F2
:10034800136823F00F0343F0070313601F4B0024C7
:100358001F4A19681C4841F0010119601C6119689D
:100368000A401A6003681B0705D5036823F00F03CA
:1003780043F007030360154B00221649164C174833
:100388009A61DA611A629C62D86219635A63996346
:10039800DA6319645A641868114C20F480201149F2
:1003A80018601A6623681940B1F1005F03D20E4B3A
:1003B8000122C3F808210D4B43F2D2025DF8044B29
:1003C8001A60704700ED00E0002000520044025817
:1003D8007FEDF6EA80020101000202020000FF013F
:1003E8000010005C0000FFFF008000510040005238
:1003F8004BB1F0EC017A013BB1EC017A77EE877AE8
:10040800E2EC017AF5D170473AB1F0EC017A013AA1
:1004180067EE807AE1EC017AF7D170474BB1F0ECE6
:10042800017A013BB1EC017A77EEC77AE2EC017A06
:10043800F5D1704782B1083050ED017A013A10EDDC
:10044800027A00F1080067EEA77AE7EE077AB1EEC4
:10045800E77AA1EC017AEFD1704700BFF5EE007A98
:100468009FED237ADFED236AE0EE077AB4EEE60A21
:10047800F1EE10FABDEEE77A04D517EE103A013B1B
:1004880007EE103AB8EEC77ADFED1B6A77EEC77A47
:1004980067EEA67ABCEEE77A17EE103A9BB2B3F590
:1004A800007F1CD207EE103A5A1C1946B8EE477A5C
:1004B80092B237EEC70AF7EE006A104B03EB8202DE
:1004C80037EE267A03EB810392ED006AD3ED006ADA
:1004D80077EE677A20EE060AA7EEA60A704777EE4F
:1004E800E67A012200219FED067AB0EE670AE2E77C
:1004F80083F9223EDB0FC9BF0000004498BB010806
:1005080000000000DFED227A20EE270AB5EEC00ACF
:10051800FDEEC07AF1EE10FA04D517EE903A013BE1
:1005280007EE903AF8EEE77ADFED1A6A30EE670ADE
:1005380060EE267ABCEEE77A17EE103A9BB2B3F576
:10054800007F1CD207EE103A5A1C1946B8EE477ABB
:1005580092B237EEC70AF7EE006A0F4B03EB82023E
:1005680037EE267A03EB810392ED006AD3ED006A39
:1005780077EE677A20EE060AA7EEA60A704777EEAE
:10058800E67A012200219FED057AB0EE670AE2E7DC
:1005980083F9223E0000004498BB010800000000D7
:1005A80030B50568D0E90104143400F1100E54ED9B
:1005B800054A14ED044A54ED033A14ED023A54ED99
:1005C800012A5EED046A5EED035A1EED027A1EED05
:1005D800015A53B31846944603E0B0EE677AF0EE3A
:1005E800466A63EEA57AB1EC016A0138F0EE665A04
:1005F800E4EE867AE2EE857AB0EE475AE4EE267AA1
:10060800E3EE077AECEC017AE7D1013D0EED046ADE
:100618004EED036A04F114044EED027A0EF1100E49
:100628000EED057A0AD01146C1E7F0EE477AB0EE32
:10063800666AB0EE457AF0EE656AE6E730BD00BF5F
:100648002DE9F04F44886FF0404E90F8008087689D
:10065800A6449845D0F8049007EB8E0EB3FBF8FA41
:1006680034D84FEA880C55463E46F346434608467A
:10067800F0EC017A013BEBEC017AF9D16144E644F4
:10068800E4B12346DFED127ACB463046FBEC016A33
:10069800013BB0EC017AE6EE877AF7D1013D66447A
:1006A800E2EC017AE1D10AFB0C7C03E05CF8043B44
:1006B80047F8043B013CF9D1BDE8F08FDFED047A3F
:1006C800013D6644E2EC017ACFD1ECE7BC46F1E7A4
:1006D800000000002DE9F043D0F804800488D0F829
:1006E80008906FF04040204408EB800723B31E4673
:1006F8004546B1EC017A2046CE46AC46DFED0F7A8E
:10070800A7EC017AFCEC016A0138BEEC017AE6EE4E
:10071800877AF7D1013E05F10405E2EC017AE8D1C8
:1007280008EB8302631E05D052F8041B013B48F80E
:10073800041BF9D1BDE8F0834246F3E7000000004E
:100748002DE9F04F154683B082688A4644881146E1
:1007580000926FF04042D0F804B00193224401EBBC
:100768008202002B69D090F80090B9F1010F4FEA8E
:10077800890E36D199460E4690465AF8043B05EB49
:100788000E0C5F46284648F8043B3B46DFED2C7AC2
:1007980054B122463146D3ED006A013AB1EC017AF0
:1007A8007344E6EE877AF6D1E0EC017A6045A7F16A
:1007B8000407EAD1B9F1010905F1040506F10406B7
:1007C800DBD1DDE9003203EB8202013C06D0009B5D
:1007D80052F8041B013C43F8041BF9D103B0BDE8EF
:1007E800F08F984609F1FF3394460E460BEB830BC6
:1007F8005AF8043B4CF8043BB9F1000F17D005EB4D
:100808000E0758460346DFED0E7A54B122463146AC
:1008180093ED007A013AF1EC016A7344E6EE877AC7
:10082800F6D1E5EC017ABD42A0F10400EAD1B8F1B5
:10083800010806F10406DBD1C3E70A46C5E700BF95
:10084800000000002DE9F04F04886FF04046D0F812
:10085800049026440A9DD0ED035A90ED046A09EBF2
:10086800860890ED057AD0F808A0002D65D02F46AF
:100878001D1D099B8C4602F1040E9FED315A1E1D69
:100888004946DFED304ADCF8003048F8043BFCEC20
:10089800017A67EEA77AE7EE477A36EE276A002CE8
:1008A80044D0DFED287A2346D3460A46F2EC016AA3
:1008B800013BBBEC017AE6EE877AF7D145ED017A88
:1008C80076EE056A1EED017A224653468B4677EE90
:1008D800677A27EEA57A46ED017AF0EE667AC7EEDA
:1008E800276ABBEC017A013AD3ED007AE7EE267A63
:1008F800E3EC017AF5D1013FB1EC017A05F1040589
:100908000EF1040E06F10406BDD10A9B09EB830320
:10091800013C80ED046A80ED057A05D053F8042B7C
:10092800013C49F8042BF9D1BDE8F08F45ED014AA7
:100938005EF8043C46F8043CDDE74B46E8E700BFB8
:10094800000000340000000010B52DED028B82601D
:100958008E46049AB0EE408A0446018002F1FF3CBC
:10096800002118460CEB0E02920017F0E7FA00225D
:1009780084ED038A606022616261BDEC028B10BD68
:100988000129B0EC017A10B416D04FF0010C002404
:10099800F0EC017AB4EEE77AF1EE10FA02D5B0EE97
:1009A800677A64460CF1010C6145F1D182ED007A59
:1009B8001C605DF8044B7047002482ED007A1C60CF
:1009C8005DF8044B704700BF82B0019191B10B46AE
:1009D800DFED0A7AB0EC017A013B77EE877AF9D13C
:1009E8009DED017AB8EE477AC7EE876AC2ED006AD4
:1009F80002B07047DFED017AF2E700BF00000000A7
:100A08000129B0EC017A10B416D04FF0010C002483
:100A1800F0EC017AB4EEE77AF1EE10FA02DDB0EE0E
:100A2800677A64460CF1010C6145F1D182ED007AD8
:100A38001C605DF8044B7047002482ED007A1C604E
:100A48005DF8044B704700BF2AB150F8043B013AE7
:100A580041F8043BF9D1704731B32DE9F0414FF02B
:100A6800000E02F1020832F81EC038F81E300EF1EE
:100A7800020E4FEA9C0C9B088E4550F82C700CF126
:100A8800010550F8236003F1010440F82C6040F898
:100A9800237050F8253050F8246040F8256040F85D
:100AA8002430E0D3BDE8F081704700BF2DE9F04164
:100AB80005460846B5F800806A684FEA580100EB19
:100AC80088065FEAD8082DED088B82B000F0A9806F
:100AD8004FEA810C00F1100302F1100706F1100E25
:100AE8000CF1100C03EB081800EB0C04B4441CEDDB
:100AF800035A0EF1100E1CED042A0CF1100C5EEDD9
:100B0800082A10371EED073A10335EED063A103406
:100B18001EED054A5CED067A5CED056A13ED081AD0
:100B280053ED071A13ED066A71EE22BA13ED057A32
:100B380031EE83BA54ED084A76EE23AA54ED075AEB
:100B480037EE04AA54ED060A74EE829A14ED050AEB
:100B580035EE859A70EEA78A43ED08BA30EE268AFC
:100B680003ED07BA43ED06AA31EE621A03ED05AAB2
:100B780071EEC31A44ED089A32EE642A04ED079A1E
:100B880075EE655A44ED068A37EE447A04ED058A17
:100B980036EE636A57ED084A77EEE07A17ED075AA2
:100BA80076EEC06A22EE244A434561EE852A25EE98
:100BB800413A64EEE53AE1EE242AA1EEA43AF0EED9
:100BC800444AE2EE053AE5EE854A4EED082A0EED76
:100BD800073A4CED083A4CED074A17ED065A57ED1F
:100BE800055A67EE854A27EE253A65EEC63A25EEA0
:100BF800664AA6EE053AB0EE646AA6EEA56AF0EE7D
:100C0800636A0EED063AE7EE056AB0EE447AA7EE9F
:100C1800A57A4EED056A0CED056A0CED067A7FF4AF
:100C280066AF89B20223019100F0CEFA02236A6806
:100C38000199304602B0BDEC088BBDE8F04100F0E8
:100C4800C3BA00BF2DE9F04F07462DED068B8FB0D4
:100C58000B9008460C9139880646D0ED007A490871
:100C680090ED017A7F68083600EBC10200EB810540
:100C78000496D2ED006A02EB8104D2ED015A8B0092
:100C880037EEA66A95ED005A77EEE67A490877EED0
:100C9800256AD5ED012A37EE657AD4ED005A76EE4D
:100CA800453A94ED012A35EE866A079175EE074AB2
:100CB800294635EE877A099236EE056A083132EE12
:100CC800A73A07F1080637EE457A069180ED006AE3
:100CD80036EEE24A94ED015A114695ED016A73EE3B
:100CE800E53A76EE856A083133EE423A0A9734EEF1
:100CF800424A009176EE866A114672EE277A74EEC1
:100D0800E55AC0ED016A85ED003A77EEE27A85EDA5
:100D1800017AC2ED003A82ED014A2246C4ED007A1A
:100D28000832C4ED015A0592079A039607F1100696
:100D3800023A019607F1180652080296089200F046
:100D48003481934600F110020C3B07F120090D9203
:100D58000A4607F13008234402F1100EA5F10C06EB
:100D6800DDF804A005F110000C39A4F10C0C04F115
:100D780010020D9F52ED025ABBF1010B10ED025A01
:100D880007F108075EED023AA6F1080617ED047AA6
:100D980035EE254A5EED016A0AF1080A37EE231A94
:100DA80057ED037A52ED014A37EE637A10ED016A86
:100DB80077EEA63A34EE014A00F1080077EEE67ABB
:100DC800A1F1080131EE451A09F1100907ED044AAD
:100DD80077EE640A12ED014A37EEC50A50ED036A50
:100DE80077EEE57A31EE651A0EF1080E76EE846A32
:100DF800ACF1080C30EE250A08F1180837EE855AD0
:100E080002F1080276EEA36AA3F1080370EE860ADF
:100E180037EE467A47ED036A33EEC66ADCED047AAC
:100E2800D3ED049A37EE247A96ED048A36EE644AB6
:100E3800D1ED045A38EE273A93ED039A75EEA92AB4
:100E48009CED032A75EEE93AD1ED038AD6ED034A03
:100E580078EE096A33EE226A34EE82AA73EEC21A79
:100E680086ED046A76EEE76AD3ED03AA77EE897A0F
:100E780091ED036A71EEA41A73EEE44A36EE2A6A1B
:100E880076EEE86A77EEE87A36EE0A6A73EE655A25
:100E980072EEC32A3AEE683A86ED036A74EE824A25
:100EA8005AED043A1AED032A37EEC86A33EE493A86
:100EB80066EEA37A23EEE18A62EE608A20EE029A59
:100EC800E1EE827AA6EE828AB0EE492AF0EE686AEE
:100ED80075EEE95AA0EEA32AE0EE236A00ED042A93
:100EE80040ED036A81ED048AC1ED037A59ED077A72
:100EF80059ED083A27EEC12A64EE271A65EEA76A6B
:100F080067EEC37AF0EE425AE3EE636AE2EEA37A42
:100F1800E4EE235AE1EE231A4EED041A4EED035A7D
:100F2800CCED047ACCED036A58ED0C6A58ED0B7AD7
:100F380066EE265A67EEC73A25EE273A26EEE44AC9
:100F4800E5EE263AA7EE263AF0EE446AB0EE657A68
:100F5800E6EE276AA4EEA77A42ED033A02ED043AD8
:100F6800C3ED046A83ED037A7FF404AF089B049A07
:100F780002EBC3020492039A02EBC3020392069A9D
:100F880002EBC3020692019A02EB03120192009A45
:100F980002EBC3020092059A02EBC30203EB430380
:100FA8000592029A02EBC3030293069B059E049FD7
:100FB8000099D6ED002A93ED003AD1ED006A97ED3D
:100FC800007A33EE226A96ED012A37EE265AD1EDE1
:100FD800014A37EE667AD7ED015AD3ED017A36EE3B
:100FE800056ABDF81C1077EE423A0A9A75EEE46A73
:100FF8000C9887ED006A75EEA45AD6ED011A73EEC7
:10100800A73A93ED016A75EE434A36EEC34A36EEC7
:10101800216A35EEE75A77EE677A36EEE27A76EEAF
:10102800256A34EE224A74EEE24AC7ED016A35EECB
:10103800425A039F77EE827A37EE037AD7ED016A38
:10104800D7ED005A24EE266A019F66EEE36AA3EE06
:10105800A56AE4EE256A83ED006AC3ED016AD7ED5F
:10106800016AD7ED005A25EE266A009B66EEE46A0F
:10107800A4EEA56AE5EE256A83ED006AC3ED016A70
:10108800029BD3ED016AD3ED005A042327EE266AAA
:10109800009166EEE76AA7EEA56AE7EE256A86ED97
:1010A800006AC6ED016A00F08FF828460B9D0423FC
:1010B80000996A6800F088F809986A68042300991A
:1010C80000F082F804236A68204600990FB0BDEC4E
:1010D800068BBDE8F04F00F077B800BF012A2DE974
:1010E800F041064617460C469846058859D0B5F58E
:1010F800807F51D00FD8402D14D049D9802D03D1ED
:1011080021463046FFF7D2FCB8F1000F13D1012F6A
:1011180018D0BDE8F081B5F5006F3DD031D9B5F5EF
:10112800805FF1D1012372682946204600F04CF80F
:10113800B8F1000FEBD0B2682046B189FFF78CFCFC
:10114800012FE6D107EE905AB7EE007AF8EE677AEB
:10115800C7EE276A002DDCD004F10801002311ED49
:10116800027A013351ED017A08319D4227EE267A41
:1011780067EEE67A01ED047A41ED037AEFD1BDE836
:10118800F081B5F5007FCDD0B5F5806FB8D0BBE75D
:10119800102DB5D0202DB7D121463046FFF752FD8E
:1011A800B2E775B10C314FF0000C51ED027A0CF139
:1011B800010C0831F1EE677A654541ED047AF4D106
:1011C80095E7002BA5D0B6E72DE9F04F2DED108B54
:1011D80091B08A468B46DFEDBEBA0E90CDE90C324F
:1011E800034604330F934FEADB070E9A4FEACB030B
:1011F8004FF0000E02EB47110B9707EB870401EB4A
:101208000710A7EB8702E400019000EBC202C7EBCE
:10121800C70003947D01C4004FEAC70902954FEA4D
:1012280007180E9D07EB4706069408F1040009F11C
:10123800040401EBC70C2C442844350102EB471782
:101248000495F5000F9E0595019D10ED017ADE4489
:10125800D2ED009A97ED005AF245D5ED004A16ED09
:10126800016A39EE859A9CED004A77EE245AD1ED51
:10127800006A77EE640A54ED017A74EEC74A36EED6
:10128800261A77EE848A76EE666A31EE257A38EE8B
:10129800896A31EE651A77EEC47A77EE065A37EE28
:1012A800467A77EEE92A46ED015AB0EE668A81ED74
:1012B800007A77EEC57A94ED00AA72EE852ADCED05
:1012C800011A91ED017A77EEA97A7AEE613A97EDF3
:1012D800016A92ED012AA2EEEB8AD6ED005A7AEE67
:1012E800211A33EEC23A90ED000A35EEC74A95ED61
:1012F800015A73EEC63A70EE05AA75EE875A33EEB8
:10130800063A33EE827A70EE453A35EE405AB0EE40
:10131800440AB0EE63AAF0EE489AA3EE6B0A32EEE6
:10132800062AE2EEAB6A35EEEA6AA7EE2BAAE7EEEA
:101338006B9AA7EE2B5AF0EE602A35EEAA7AF0EEF9
:10134800405AE7EEAB2AA3EE2B4AE7EEAB4AE7EEAC
:10135800EB5A71EE82AA31EE42BA71EE617A36EE3C
:10136800683A36EE496A37EE2A1A77EE827A33EE11
:10137800099A36EE8A2A86ED001A34EE623A1E443D
:1013880037EE6A7A7BEE211A36EE286A76EECA6A5A
:1013980081ED017A73EEA93A40ED011A38EE055A4B
:1013A800C5ED007A32EE844A80ED009A70EE244A48
:1013B80085ED016A70EEA55A04ED012A1944C7EDBE
:1013C800006A1844CCED003A1D4482ED005A84EDC1
:1013D800003A1C4487ED014A1F44CCED014A9C4465
:1013E800C2ED015A1A443FF630AF0B9A072A40F271
:1013F8009F81029D09F108090E9E08F10C08083525
:10140800069A059975190832039C08310A953546DC
:1014180004980834AA18691808304E4405922A46D8
:101428002C1928180C3206914FF0010905EB080118
:101438004FF00008099608940790039104920C9ABB
:10144800CE46059E90440D9A02EBC802A8EB88018F
:1014580092ED00FA02EBC802D2ED00EA02EBC802F4
:1014680092ED00EA02EBC802D2ED00DA02EBC80204
:1014780092ED00DA02EBC802D2ED00CA02EBC80214
:1014880092ED00CA92ED01BA02EB0112D2ED01AA67
:1014980002EBC80292ED01AA02EBC802D2ED019A52
:1014A80002EBC80292ED019A02EBC802D2ED017A72
:1014B80002EBC802CDED017AD2ED017A0A9ACDEDA0
:1014C800027ADDE903C7DDE90654DDE9080101E038
:1014D800F304353FD5ED003ADE441CED017AD4ED36
:1014E800006AF245D6ED004A17ED014A37EE266A42
:1014F80091ED003A33EEA40AD2ED005A77EE668AEF
:10150800D0ED007A76EEC76A34EE255A97ED001AC8
:1015180073EE270A73EE677A35EE062A30EE807A84
:1015280035EE466A77EEE3FA32EE075A77EEE47A5A
:1015380032EE472A07ED015A74EE655A90ED017AAA
:1015480077EEA37A91ED013A7FEEA44A92ED014A33
:1015580033EE475AD6ED013A71EE442A9CED008AE3
:1015680031EE041A95ED014AE7EEAB6A75EE44FADE
:1015780035EE635A33EE073A94ED017A7FEEA3FA1B
:1015880035EE045A74EE233AB0EE654AE4EEAB5AEF
:1015980078EE071AA4EEEB4AF0EE624AEFEEAB2AB9
:1015A800EFEEEB4AF0EE68FAE7EEABFA74EEA66AF5
:1015B800E7EEEB4A78EE477A37EE487AB0EE678A7C
:1015C800A5EE2B7A78EEA44AA5EE2B8A76EE638AEE
:1015D80036EE436A37EE047AA5EE6B4A31EE615A6D
:1015E80071EE211A33EE866A74EE277A33EE234AB7
:1015F80038EE833ADDED018A71EE843A71EEC41A51
:1016080035EE604A35EE405AC7ED003A29EE211A08
:101618001F4434EE000A70EE850A23EE4A5A2AEE79
:10162800004AADEE821AAEEE805A9DED020AAEEE89
:10163800834A62EE493A20EE203A35EE882AEDEEEA
:10164800A13A82ED001A72EEEF1AACEE863A26EE57
:10165800400A22EE6A6A75EEC85A7FEEA22AC2EDE7
:10166800013AAFEE216A0CED014A2AEEA18A8CED0F
:10167800005AACEEA00A84ED003A6BEE220A1A4436
:10168800AFEE028A9C4425EECB1AB0EE462A68EEED
:10169800A63A67EEE81A84ED010A29EEA44A81ED1C
:1016A800012A27EE696A81ED008AECEE250A1C44BE
:1016B800ACEE221A1944EDEE273AEDEE261AAEEEFC
:1016C800074AAEEE246AC6ED000A86ED011A1E44EA
:1016D800C0ED003AC0ED011A184485ED004A85EDC9
:1016E800016A1D443FF6F6AE0A9A09F1010908326B
:1016F8000A92099A08320992089A08320892079AB7
:1017080008320792069A08320692059A083205921C
:10171800049A08320492039A083203920B9A4A45B3
:101728007FF48DAE0C9B9346DB009BB20C935AE57D
:1017380011B0BDEC108BBDE8F08F00BFD1ED017A80
:10174800F0EE006A91ED006AB6EE004A77EEA77AED
:1017580002F1100C00B5B0EE677AB0F800E0D6EEF2
:10176800267A40690EF1FF3EA6EE267A103067EE23
:10177800847A27EE047AC2ED017A82ED007A01F1CB
:10178800100201EBCE01A1F1080312ED027A0CF16F
:10179800080CD3ED036ABEF1010ED3ED027A00F115
:1017A800080052ED014AA3F1080337EEC75A10EDBD
:1017B800046A77EE877A50ED035A34EEE67A02F13E
:1017C800080276EEA46AE6EE057AA5EE857AE5EEDD
:1017D800A67AA6EE667A67EE847A27EE047A4CED4E
:1017E800047A0CED037AD0D15DF804FBD1ED007AD0
:1017F800B6EE004AD1ED016A37EEA67A77EEE67AC0
:1018080010B4048827EE047A67EE847A4069013CB4
:1018180082ED007AC2ED017A94B3E3001030103201
:10182800083B0B44103111ED027A0832D3ED036AFC
:10183800013CD3ED027A00F1080051ED014AA3F111
:10184800080337EE675A10ED046A77EE877A50ED91
:10185800035A34EEE67A01F1080176EEA46AE6EE60
:10186800457AA5EE857AE5EEE67AA6EE667A67EE23
:10187800847A27EE047A42ED047A02ED037AD2D113
:101888005DF8044B704700BF2DE9F041058A044616
:1018980016466D0805801D464BB1FFF7A7FF2A467F
:1018A800314620460123BDE8F041FFF717BC0F463B
:1018B8001A460123FFF712FC324639462046BDE896
:1018C800F041FFF73BBF00BF034678B1102120224B
:1018D8004FF0140C074819801A820749074A986084
:1018E8000020A3F80CC059605A6170474FF0FF30D0
:1018F800704700BF609601089CE701081C75020844
:10190800034678B1202140224FF0300C0748198057
:101918001A820749074A98600020A3F80CC059604A
:101928005A6170474FF0FF30704700BFB8B70108E1
:101938001C3002089CBD0208034680B180214FF488
:1019480080724FF0D00C074819801A820649074A5E
:1019580098600020A3F80CC059605A6170474FF096
:10196800FF307047C09401089CE301081C7102080D
:10197800034688B14FF480714FF400724FF4DC7C59
:10198800074819801A820749074A98600020A3F877
:101998000CC059605A6170474FF0FF30704700BF64
:1019A80048B401081C2802089CB50208034688B1FF
:1019B8004FF400714FF480624FF4E07C07481980BF
:1019C8001A820749074A98600020A3F80CC059609A
:1019D8005A6170474FF0FF30704700BF18B80108D0
:1019E8001C3102081C410208034688B14FF480618B
:1019F8004FF400624FF4E16C074819801A820749D6
:101A0800074A98600020A3F80CC059605A617047D3
:101A18004FF0FF30704700BFB08601089CC3010833
:101A28001C510208034688B14FF400614FF48052FC
:101A38004FF46E6C074819801A820749074A986064
:101A48000020A3F80CC059605A6170474FF0FF306E
:101A5800704700BF889601081CE801089C750208B9
:101A6800B1F5007F1CD006D8402915D0B1F5807F8C
:101A780009D10E4B1847B1F5006F0FD0B1F5805F53
:101A880005D10B4B184720290CD10A4B1847B1F543
:101A9800806F07D1084BEDE7084BEBE7084BE9E708
:101AA800084BE7E74FF0FF30704700BF41190008C7
:101AB8002D1A0008D1180008B519000809190008DE
:101AC800F11900087919000812F0DCB910B50446BC
:101AD80082B012F0F9F9230A5B00603B03F0FE00C4
:101AE80012F0A2FA12F046FAE0B212F09DFA12F0E1
:101AF80041FA12F0E9F9A12012F096FA12F03AFA36
:101B0800002012F0C5FA019012F008FA019802B00C
:101B180010BD00BF38B504460D4612F0D5F9230AAA
:101B28005B00603B03F0FE0012F07EFA12F022FA2E
:101B3800E0B212F079FA12F01DFA284612F074FA9F
:101B480012F018FA12F0EAF90520BDE838400BF057
:101B58004DBB00BF62B32DE9F041461C571E044639
:101B6800884656FA87F70025BFB212F0ADF9230A66
:101B78005B00603B03F0FE0012F056FA12F0FAF92F
:101B8800E0B212F051FA12F0F5F928FA05F0B4B201
:101B98000835C0B212F048FA661C12F0EBF912F0E0
:101BA800BDF905200BF022FBA742DED1BDE8F0818C
:101BB800704700BF2DE9F04171B3431E4F1E002549
:101BC8005C18FFB2A4B2661EF71BBFB212F07CF914
:101BD800200A2D024000603800F0FE0012F024FABE
:101BE80012F0C8F9E0B212F01FFAB4B212F0C2F95A
:101BF80012F06AF9A12012F017FA661E12F0BAF96B
:101C0800002012F045FA804612F088F9A7424544B0
:101C1800DCD12846BDE8F0810D462846BDE8F081B4
:101C28002DE9F04F4FF48061AA48DFF84C93AA4D94
:101C3800DFF848A3DFF84883A84FA94EDFF844B37C
:101C4800A84C2DED028B85B0FFF70AFF4FF4806199
:101C5800A548FFF705FF4FF48061A448FFF700FF90
:101C680060220021484616F069F9602200212846C2
:101C780016F064F960220021504616F05FF96022E0
:101C88000021404616F05AF960220021384616F025
:101C980055F960220021304616F050F99448954ACB
:101CA800D0F800E0D0F808C010689268DBF800109F
:101CB8000392914AD4F834311160DBF80810C2F865
:101CC800049091608D4A8E49C2F808C0C2E900EAC2
:101CD8008C4ADFF8B4A2C2F800E0C2E9018C8A4A53
:101CE800DFF8A882C2E90007039F9760874A82E865
:101CF800C100874A0868874E89681060186855606F
:101D08003060854D916000211A68844F2A609A6876
:101D18003846B2609B68824AAB60D4F838311360A9
:101D2800602216F00BF960220021404616F006F9F1
:101D38007C4AC5F804807760DFF854C27A4FDFF830
:101D480054E2D4E97813794C58884D88C0084E6815
:101D58006580B1F80280508058685D886660D1F867
:101D68000490ED0850605E68714B72495E60BCF883
:101D78000060A1F802803E80DFF81C82DCF8086071
:101D8800DEF80800BEF800C05D800825BE60C7F810
:101D98000480694E694FA6F800C025700D70B060C8
:101DA8005046C1F80490776015701D70C4F808A0FB
:101DB800634D644C95609C60634A644B644E5A6002
:101DC800644B654A8E6000215A604FF43F7216F0EA
:101DD800B5F830464FF43F72002116F0AFF84FF4D3
:101DE8003F720021284616F0A9F84FF43F720021EF
:101DF800204616F0A3F84FF43F720021404616F033
:101E08009DF84FF43F720021384616F097F8534E6C
:101E180030230F216E2271707280337133791F2B3A
:101E280002D93379802B51D960273A464C4BF6EECC
:101E3800006AF0EE007ADFED4B0A1A60B2EE040A8F
:101E48007378DFF8308107EE103A474C474DB8EE0B
:101E5800477AA8F80070C8E90145E7EE267A60EEEF
:101E6800E70A16F08DF84FF4805200214048B0EE92
:101E7800408A88ED030A16F061F823462A4604F5DD
:101E880020640020F16943F8040B01B11060A342FB
:101E980002F10402F6D13079B0EE480A324B3946E5
:101EA8000090324A3348FEF74FFD73889BB2B3F572
:101EB800007F03D873889BB20F2B02D84FF480732E
:101EC800738005B0BDEC028BBDE8F08F3779FAB2AC
:101ED800ACE700BF04380024A4370024B02F002446
:101EE800103000240CCF020850230024682300245B
:101EF80028D202081CD20208303100247031002494
:101F0800E8D202087C3100243C3100244831002406
:101F180098370024543100246031002470300024A4
:101F28006C31002488310024A0290024C015002425
:101F380094310024CC150024AC290024B42C0024AE
:101F4800A03100249C3400249823002480230024FA
:101F5800542000248C23002494260024605E01244D
:101F6800FC660024CDCCCC3D543E01243C2E0124FB
:101F7800584E01243C3E0124601500241C380024DE
:101F88007C380024DCD20208581D0024D0300024FC
:101F980004D2020810D20208B829002410B5FFF7AD
:101FA8003FFE264C15F0D8FA06220121002012F037
:101FB8002DF906220121032012F060F9204812F0C1
:101FC80081F90223C022214604F5407012F01CFA60
:101FD8000223C02204F5C06104F5106012F06EFA05
:101FE80012F0FAFA12F0F0FA092116480AF07EFE09
:101FF800432115480AF014FF09F070F80AF014FE9E
:10200800002140F6C31012F035FF104A104B116939
:10201800104841F001011161916A41F0010191629A
:102028009A6842F001029A609A6842F004029A6043
:10203800036843F00103036010BD00BF400400249F
:102048000077010010000240280002400000024012
:102058000020024000100040424B5A6812056AD521
:10206800DA6842F400622DE9F04F2DED028BDA6058
:10207800ADF5517DD3F888301F035DD53A4B3B4908
:102088003B4A03F5407093ED007A083353ED017A2B
:10209800B8EE477A9842F8EE677AA1EC017AE2EC5A
:1020A800017AF0D1DFF8E480C0254FF4804131484F
:1020B80098F804305B00B5FBF3F5ABB2049312F06B
:1020C800DBFC2D4B4FF4806193F82A6093F829408C
:1020D800344000EA0406294812F0CEFC4FF40061AF
:1020E8000640264812F0C8FC064277D0B8F800002F
:1020F80000284DD108F58053214C0293214B0593BC
:1021080023795BB2012B41F3BC832379052B00F0C3
:1021180099832379032B00F09583174B029A5B7EF2
:10212800002B4FF0370382F80D3E14BF00233F23E6
:1021380082F80C3E8BE37047134B0C490C4A03F5AD
:10214800407093ED007A083353ED017AB8EE477A80
:102158009842F8EE677AA1EC017AE2EC017AF0D1C4
:10216800A0E700BF00040240400D0024D818002456
:10217800D81B00240004025808C20124000C02588D
:10218800D8C2012414C00124400A0024DC380024E9
:10219800B64B002203F54071C3E900220833994287
:1021A800FAD1B34C431EC821B24822799BB24FF0F2
:1021B8007E56A0F8E61C52B2AF49A8F80030012AB2
:1021C800029005910E6002DD632B41F28A83227929
:1021D80052B2012A40F3F182002B91D0A74B5B79D0
:1021E80003F0FF06002B40F09E81A44B93F82730A4
:1021F800012B00F098819E4C23795BB2012B41F3AF
:1022080045804FF480419E4812F036FC28B19B4A25
:1022180092F82A30002B40F0E78523795BB2012B36
:1022280040F3618123795BB2052B00F35C81914B0C
:1022380000220293A3F80C2EB3F8E63C002B01F021
:102248004B834FF496730299A8F8003001F2DC43EF
:1022580001F2DC71C3E9002208338B42FAD14FF452
:102268008041874812F008FC18B1844B93F8293054
:102278002BB900224FF40051824812F0F7FB029A62
:10228800B2F8E63C013B9BB2632BA2F8E63C41F274
:102298001883F7EE007A7C4E312BC6ED007A00F2F7
:1022A8002281029BDFF8289203F6C85393ED007A47
:1022B800B9F90A30B0EEC77A06EE903AF8EEE66A57
:1022C800F4EEC76AF1EE10FA41F1F98637EE667A54
:1022D80087EE266ADFED6D6A66EEE76AB5EEC06ADC
:1022E800F1EE10FAACBFB1EEC67A9FED697A9FEDB8
:1022F800696AE6EE877A8DED097AC7FE867AC6EDB9
:10230800007A5E4A92F82830012B04D192F82A30DC
:10231800002B02F09F8160235F4A60496048FEF706
:102328008FF95D492B465F480A460F460691FEF72E
:1023380037F999F96330394696ED006A2A4607EE6F
:10234800903A594B57ED036A3846B8EEE77AD3ED21
:10235800007A17ED010A67EE867A67EEA67A67EECD
:10236800877A87EE800AFEF74FF8049BA7F55B7221
:10237800A7F57371012008F079FE6023A7F64C02D7
:10238800A7F6CC11032008F071FEDDB10499474A85
:102398000139069B161D89B2A3F5737306EB8106F6
:1023A8004349D3EDF36A043313ED017AD3ED177A79
:1023B80027EE267A67EEA67AA2EC017AB242E1EC21
:1023C800017AEED1394A2B463A4811463A4EFEF781
:1023D800E7F8374A2B4639481146FEF7E1F8334902
:1023E80096ED000A2A460846FEF70EF8304996EDA3
:1023F800000A2A460846FEF707F82B46264A2B49C4
:102408002F48FEF79DF92B462E4A29492E48FEF7FC
:1024180097F92E4B214803F6CC1103F6CC5203F55D
:10242800C07C10E02679032E10D02679042E00F007
:102438005B852679052E00F0578504330430043176
:102448000432634546D02679022EEBD191ED006A1D
:10245800D3ED007AD2ED006A67EEC67A93ED607A22
:10246800E6EE877AC0ED007AE7E700BFB84D0024B2
:10247800D8C20124DC48002414C0012408C2012465
:10248800000402580000025814000024CDCCCC3DB2
:10249800000000000AD7233CB8450024D8180024BF
:1024A800C015002430310024B8D102085817002480
:1024B800581A0024543100246C310024603100245F
:1024C80088310024B849002494310024EC3B0024CE
:1024D80050C20124029BB3F8E63C002B01F045876B
:1024E800C823A8F800304FF48041BD4812F0C4FA60
:1024F80028B1BC4A92F82A30002B40F07C8423791A
:10250800062B00F001854FF48041B54812F0B4FA6B
:1025180028B1B44A92F82A30002B40F05E8423791F
:10252800072B00F023848021AF4812F0A5FA002879
:1025380000F07982AD4B1A6816012AD59A68AC4C1E
:1025480042F000629A609B6D1D0340F12B81A94AFD
:10255800234604F5407053F8041F834242F8041FD1
:10256800F9D18021A04812F087FA90B9DFF8D0920B
:102578000123A14EA44609F5005A99F800509F4F2F
:10258800DAF80400002D00F0288289F80050CAF813
:1025980004009B4B1A68140517D59A6842F4006228
:1025A8009A609B6A974A190340F1C280964902F5DE
:1025B800C070F2EC017AFDEEE77A824217EE903AAB
:1025C80003F5006321F8023FF3D18D4B1A6890069A
:1025D80040F1A8809A6840A910AD70AC42F0200282
:1025E800A0A89A601B691B0340F1B280874B2A465A
:1025F800A44607460E468E46B3F80080083306EE1A
:10260800108A33F8068C06EE908A33F8048CB8EEFC
:10261800466A07EE108A33F8028CF8EE666A07EE0F
:10262800908AB8EE477AA2EC016A7245F8EE677AAA
:10263800E1EC016AACEC017AE7EC017ADCD1744A8E
:102648003021B0EE088AA2F6D858FEF7BDF99FED02
:10265800717A284608F6D8573021A8F54A79D7ED77
:10266800007AA7F1180567EE877A2A46C7ED007A3F
:10267800FEF7AAF957ED036A3046D5ED007A08F659
:10268800C4529FED657A302167EEA67A67EEA77A85
:1026980067EE877A99ED007A38EE477A67EE277AFF
:1026A80047ED047AFEF790F917ED056AB7EE007A60
:1026B800D9ED007A66EE066A9FED585A57ED045A2E
:1026C80078EE677A66EE856AF4EEC75A67EEA67A00
:1026D800F1EE10FA47ED027A1BDDD5ED005AF2EE65
:1026E800046A08F6D458C6EE257A37EE876A37EEBC
:1026F800677AC6EE077A67EEA67AFCEEE77ACDED42
:10270800027A9DF8083007EE903AF8EE677AC8ED3D
:10271800007A434A30212046FEF756F914F044FD6A
:1027280014F0A0FC0DF5517DBDEC028BBDE8F08FD7
:102738003C4902F5C070F2EC017AFDEEE77A90426E
:1027480017EE903A03F5006321F8023FF3D13CE716
:10275800354B2A46A44607460E468E46B3F80080F7
:10276800083306EE108A33F8068C06EE908A33F8A2
:10277800048CB8EE466A07EE108A33F8028CF8EE3D
:10278800666A07EE908AB8EE477AA2EC016A964527
:10279800F8EE677AE1EC016AACEC017AE7EC017AD1
:1027A800DCD14CE7214A234604F5407053F8041F56
:1027B800984242F8041FF9D1D3E6012B3FF60EAD3B
:1027C80041F214420299A1F80C2E194A19491160D4
:1027D800194A1A491160002B7FF400AD90E400BF3C
:1027E8000004025808C20124000C025800040240E8
:1027F800B44D00243C07002434FE0024B04D0024CE
:1028080000000240EC3800243E100024C0110024CF
:10281800B45600246C09793BCDCC4C3E6B99C63339
:1028280098560024FE100024401300243C04002481
:1028380000000024CDCCCC3C0400002400803B45A3
:10284800088001244FF45C53029AA2F80C3E2379C5
:1028580000225BB2A8F80020012B41F32B80059BD6
:10286800DFF8B89293ED007A99F8563099F8562027
:102878005BB252B213FB02F307EE903AF8EEE77A36
:10288800F4EEC77AF1EE10FA00F3038109AB039373
:1028980099F8563099F856205BB252B213FB02F3FE
:1028A80007EE903AF8EEE77AF4EEC77AF1EE10FA0E
:1028B8000ED899F8563099F856205BB252B213FBED
:1028C80002F307EE903A059BF8EEE77AC3ED007A3B
:1028D800029E6022874996F8B93D874803F5EB6365
:1028E80008EB830393ED000AFDF78EFD834A60230E
:1028F80080491046FDF77CFD99F86A30002B40F0BE
:10290800E98196F8B93D60227B4903F24E73084687
:1029180008EB830393ED000AFDF776FD00236021A1
:102928000AAA7648FEF72CF800230BAA6021734800
:10293800FEF766F800230CAA60216F48FEF720F81E
:1029480000230DAA60216C48FEF75AF8DDED0A7ADB
:102958009DED0C7ADDED0D6A37EE277A9DED0B6A59
:10296800039BD9F8582077EE667A77EEC67AF5EEAB
:10297800C07AF1EE10FA44BF76EE867A77EEC77A1F
:10298800C3ED007AFCEEE77A17EE903A934240F2F4
:10299800C7809B1A07EE102A9FED596A07EE903AF6
:1029A800F8EE475A039BF8EE677A9FED567AC7EE22
:1029B800A56AC3ED006A544BD3ED007A27EE877AF7
:1029C800E6EEC77AF4EEC67AF1EE10FA40F18482A8
:1029D80083ED006A4FF4A573BEE001300122294659
:1029E800B0F5006F1CD200FA02F18A1857F833408C
:1029F80006EB810106EB8202602B07EE904A5CF839
:102A0800334003F10103B8EEE77A07EE904AF8EE97
:102A1800E77A81ED007AC2ED007A7FF4B3ADB4E5D0
:102A280028461546E2E7394C602239496379084659
:102A38005BB203F23A7308EB830393ED000AFDF7E8
:102A4800E3FC637960222B495BB2314803F244739B
:102A580008EB830898ED000AFDF7D6FC2D4A6023A1
:102A680024491046FDF7C4FC2B4B2949294A03F594
:102A78004070B1EC017A0833F2EC017ABDEEC77A06
:102A88008342FDEEE77A03ED027A43ED017AF0D155
:102A980050E599F85630F7EE006A99F856205BB27F
:102AA8009FED186A52B277EE266A27EE066A13FB84
:102AB80002F307EE903A99F8563099F856205BB22F
:102AC800F8EEE77A52B213FB02F337EEC77A07EE55
:102AD800903A059BF8EEE77AC7EE275AB0EE667A89
:102AE800A5EE867ACDED095A83ED007A09AB0393FA
:102AF800CEE600BFB8490024D81B0024D81800240B
:102B08000000A543CDCCCC3D04000024D8C201244C
:102B180058170024581A0024B84D002450C2012424
:102B28000299CF4801F6DC41D1ED007A01880131E4
:102B380089B207EE101A0180B8EEC77AB4EEE77AC8
:102B4800F1EE10FA80F25E81C64BD3ED007AFCEE0E
:102B5800E77A17EE903A9BB2C349B7EE006ADFED09
:102B6800C36A4B61C24BB9F85E20D3ED007A99F87D
:102B7800623096B286EE270A49695BB29FEDBD7A4C
:102B8800A1F5A57108EE103A07EE901AB8EEC88ABA
:102B9800F8EE677A38EE268AA7EEC78AB7EEC00A3B
:102BA80015F04EFB07EE906AB6EE087A029FF8EE33
:102BB800E77A6023B3EE046BAF4AB04967EE877AD1
:102BC800AF48FCEEE77ACDED067A9DF8186007EE7F
:102BD800106AB8EEC77A38EE477AB7EEC77AA0EE31
:102BE800067BFCEEC77B17EE906A06F07F06A7F817
:102BF8000A6EC6F17F06C7F8E06CFDF76BFD60232F
:102C0800A04AA149A148FDF765FD6023A04A9D4956
:102C18009948FDF7EDFB60239E4A9A499648FDF7CF
:102C2800FDFB80219C4811F027FF012800F05F82FE
:102C38009A4A60230020DFF840A202F5C071DFF84D
:102C4800449208F013FA954B5046494603F2CC6675
:102C580003F5C07C32460696B3EC017AF2EC016AC1
:102C6800D3ED5F7A9C4526EE877A67EEA67AA0ECCC
:102C7800017AE1EC017AEFD17F4A60238848114656
:102C8800FDF7DEFC7F4A602386481146FDF7D8FC35
:102C980023795BB2052B40F35C822379062B01F084
:102CA80011802379072B00F05B8623795BB2012B17
:102CB8007FF794AAB8F800300A2B7FF68FAA059AF6
:102CC80000230021724813604FF4407215F036F962
:102CD800FFF784BA6C496022734E084696ED000AE5
:102CE800FDF792FB0EAA60216448FDF76DFE0FAA5E
:102CF80060216548FDF768FE9DED0F6ADDED0E6AFF
:102D0800B7EE007A039BC6EE267AF4EEC77AC3EDD7
:102D1800007AF1EE10FA10DDD6ED006ADFED635AA5
:102D28009FED636AE7EEE56AF4EEC66AF1EE10FA23
:102D380058BFB0EE667A86ED007AB7EE007AF4EE08
:102D4800C77AF1EE10FA7FF5E9ADD6ED006AB1EE7B
:102D5800046ADFED585AE7EEA56AF4EEC66AF1EEAA
:102D680010FA37FE267A86ED007AD7E5524B002214
:102D78000293A3F80C2EB3F8E63C002B00F0A683D0
:102D88004FF496730299A8F8003001F2DC4301F27F
:102D9800DC71C3E9002208339942FAD14FF480412B
:102DA800464811F069FE18B1454B93F829302BB904
:102DB80000224FF40051434811F058FE029AB2F82D
:102DC800E63C013B9BB2952BA2F8E63C40F27083AF
:102DD8003D4B3E4A1A60FFF7A6BB92F82930002BFC
:102DE8007FF4A1ABFFF79BBB92F82930002B7FF44F
:102DF8007AABFFF712BA92F82930002B7FF483AB35
:102E0800FFF77DBBD31A07EE102AB7EE005ADFEDA5
:102E1800306A07EE903AB8EE477A039BF8EE677A85
:102E28009FED2C6AC7EE875AC3ED005A0D4BD3EDC0
:102E3800007A77EE857A27EEA67AE5EE877AF4EEC1
:102E4800C67AF1EE10FA00F3DC87C3ED007AFCEEE7
:102E5800E77A17EE903A9BB2002202807CE600BF28
:102E680008000024040000240074004000003842D8
:102E7800048001242B2D483C58170024D81800241E
:102E8800A0290024581A0024D81B0024AC290024A7
:102E9800B8490024B8450024000C0258EC3E002430
:102EA800C0150024CC150024100000246F12833AAA
:102EB800CDCC4C3EACC52737DC4800240004025872
:102EC80008C201240000025814000024C3F5A83EDB
:102ED8000AD7233C00F07F45C3ED007AFCEEE77A81
:102EE80017EE903A9BB237E6D1ED007A93ED006A7F
:102EF800D2ED006A67EE867A93ED607AE6EE877A1D
:102F0800C0ED007AFFF799BAC64B00220293A3F8E6
:102F18000C2EB3F8E63C002B40F0F484C24EC34BB1
:102F280093F82830012B05D1C04B93F82A30002B99
:102F380001F0E9826023BE4ABE49BF48FDF780FB25
:102F4800BB4B09AFBD481A462B46DFF830931146F4
:102F58009246FDF725FBBA4BD6ED007A2A4693ED4B
:102F6800000A514699F96330504620EE270A039724
:102F780007EE903AF8EEE77A20EE270AFDF744FAD2
:102F88003A4629465046FDF71FFDDDED097AB0EEB9
:102F9800087A5AED026AF0EEE77A67EE877AF4EE7D
:102FA800E67AF1EE10FA41F3588077EEE67A96ED7C
:102FB800007A9FEDA46A9FEDA45AC7EEA65A66EE62
:102FC800476AF0EE477AE6EEA57ACDED095AC7FED4
:102FD800857AC6ED007A9D4A2B469D48A2F64C4656
:102FE800A2F58061FDF7ACFB60233246A6F5C071FF
:102FF800032008F03BF806F64803B7EE007ADFF83E
:1030080034C2D3ED007A06F64403DFF874E206F61C
:103018004C4087EE276AD3ED005A7146A6F5C07377
:103028006246F0EC016AB3EC017A76EEA56AD3ED5C
:103038005F7A27EE067AB34266EEA77A27EE267AFB
:1030480067EE867AA2EC017AE1EC017AE9D1B9F966
:103058000A3007EE103A029B03F6C853B8EEC77A57
:10306800D3ED007AF0EEE77AB4EEE77AF1EE10FAF3
:1030780040F1CD8677EEC77A039B9FED736AC7EE62
:10308800876ADFED707AF5EEC06AF1EE10FAACBF30
:10309800B1EEE67A9FED6F7A83ED007A6E4BD3ED51
:1030A800006A26EE666AE6EE076AF4EEE76AF1EE73
:1030B80010FA00F1CD86C3ED006A029BB3F8E63C36
:1030C80083B9664A664B6749BCEC017AFEEC017A23
:1030D80027EE267A614567EEA67AA2EC017AE3EC40
:1030E800017AF1D1C823A8F80030FFF70CBADFF84D
:1030F800949199F800E0BEF1000F7FF499AD09F5BD
:10310800005A4B4A5849DAF8043002F5C07C0133BA
:1031180001EBC306B3F5006F30460DD252F804BB7D
:10312800C6F800B06245D2F8FC634660EFD189F872
:1031380000E0CAF804307BE552F8043B4FF0010E7A
:10314800D2F8FC0394450B604FF000034860DED1D1
:10315800EDE7424A2B4645481146DFF82CB1FDF70A
:103168001FFA3F4A2B4642481146FDF719FA3B49D8
:103178009BED000A2A460846FDF746F938492A46D3
:103188009BED000A0846FDF73FF9049F394A0120E4
:103198003B4602F1600107F069FF002D01F0A081B4
:1031A80007F1FF3B3449334B1FFA8BFB01EB8B01D3
:1031B8004FEA8B0B0DE02279042A23D02279012AC9
:1031C80020D009F1040904330AF1040A494500F042
:1031D800F6802279032A04D02279022A01D02279A2
:1031E8006AB99AED006AD3ED007AD9ED006A67EE04
:1031F800C67A93ED187AE6EE877AC3EDF37A2279E8
:10320800052AD8D1DAED007A93ED006AD9ED006A83
:1032180067EE867A93ED187AE6EE877AC3EDF37A4D
:10322800CFE700BFDC4800241400002408C20124B2
:10323800B8450024D8180024C015002430310024D3
:10324800B8D10208CDCCCC3D0AD7233CB8490024DC
:1032580088310024000000000C00002458170024C6
:10326800581A0024581A002434FE0024543100242B
:1032780060310024EC4100245C1A002450C201246F
:10328800D81B0024088001246C31002401224FF44B
:103298000051734811F0EAFB724B9B7B012B00F045
:1032A800DD85DFF808A24FF400616F4811F0E4FBF8
:1032B8004FF480618AF800006B4811F0DDFB8AF852
:1032C8000100684B1B7B012B00F03A87654B1B7B89
:1032D80003F0FF06002B7EF494AF4FF4804163485F
:1032E80011F0CAFB012841F00880BAF80030002B21
:1032F80041F0038003208AF804009AF803308342DF
:10330800BAF80A3018BF8AF80300002B01F00780CA
:10331800544B4FF48071564A5B7E5448002B4FF053
:103328003703029208BF3F2682F80D3E82F80C6EE2
:10333800002211F09BFB012202214E4811F096FB5E
:10334800BAF80A60B8F80230B342C1F08B81B8F815
:1033580000309BB14FF4C0720021474814F0EEFDD5
:103368004FF4C0720021454814F0E8FD029B4FF469
:10337800C0720021A3F57F6014F0E0FD731EAAF867
:103388000A309AF80630002B7EF43BAF9AF80330E7
:10339800002B3EF436AF9AF8022093423EF431AF48
:1033A800022B05D9012A01F03582022A02D1012314
:1033B8008AF8053001238AF80630FEF722BF304B21
:1033C8002A46304993ED000A2F48FDF71DF82F4B88
:1033D8002F49B7EE002AD3ED003A08F54E632D4881
:1033E8009B449FED2D6ADFED2D4ADFED2D2A9FEDE1
:1033F8002D5A9FED2D3AD0ED007A0B8808E067EE44
:10340800246AE5EEA67AC7FE837AB34500F0C48144
:1034180096ED007A65EE675A5A1C27EE277AF0EE89
:10342800C76AA6EC017AF4EEC66A36EEC67AF1EE01
:1034380010FAE4DC93B236EE664A67EEA25A07EE5B
:10344800103AB8EEC77AF4EEC73AF1EE10FADCD8C3
:1034580064EE246A0023E5EEA67AC7FEC27AD4E7B2
:103468000000025808C20124000C02580004025847
:10347800DC4800240008025858170024581A002471
:1034880004800124847E0124B8450024B855002412
:10349800F856002400000024000080470000803710
:1034A8000AD7233CCDCCCC3D6F12833A0067002469
:1034B800002280219E4811F0D9FA9E4B9E4A1A603C
:1034C800029BB3F8E63C632B3FF62DA89B4B93F881
:1034D8002830012B05D1994B93F82A30002B01F0A5
:1034E8000A806023964A97499748FDF7A9F8944AB5
:1034F8002B4696481146964CFDF752F8954BDFF847
:103508008C922A46D4ED006AD3ED007A99F963309B
:1035180067EEA67A9FED907A00EE103A884967EE3A
:10352800877A0846B8EEC00A27EE800AFCF76CFFD7
:1035380000230BAAC0218248FDF722FA00230AAA19
:10354800C0217F48FDF75CFAB9F87A309DED0B6A27
:103558009DED0A7A07EE903A76EE476AF8EEE77A3A
:10356800F4EEE76AF1EE10FA40F33A8576EEE76A90
:1035780094ED007ADFED795A09AB86EEA76A0393DA
:1035880067EE256AF0EE477AE6EE667A8DED096A0F
:10359800C7FEA57AC4ED007A714E60230320324637
:1035A800A6F5C07107F062FD002D01F02F80049B85
:1035B80006F64C006B4F013B6B493A1D04959BB2D4
:1035C8000596CDF81C90834602EB8303674AB946FB
:1035D800DFED678A9FED678A1D46D1ED017A0E46B9
:1035E800584C1746DFF8A8A10690DAF80030B0EE7C
:1035F800680A013307EE103A602BB8EEC77A88BF25
:103608000023CAF8003098BF27EE080A9BED007A1D
:1036180077EE277AC9ED007A27EE800AFCF71EFFBD
:10362800DAED007AA4EC010AF8EE677AB9EC010A3F
:1036380067EE887A27EE800AFCF764FFFBEC017AD4
:10364800A945A7EC010AC6ED017ACED1DDF81C9098
:10365800DDE904563A4A2B463A494748FDF770F8DF
:103668002B46464A41494648FDF76AF8DFF824B137
:10367800069BB1EE087A9BED005A53ED027A53EDA2
:10368800016A65EE277A3F4B2E4903F6CC12C7EE46
:10369800A65A65EE875AB3EC017AF2EC016AD3EDCB
:1036A8005F7AB34292EDFF6A67EEC67AE6EE877AF2
:1036B80067EEA57AE1EC017AEDD1029BB3F8E63C1E
:1036C800002B00F04286029BB9F90A2003F6C85382
:1036D80007EE102AD3ED007AB8EEC77AF0EEE77A53
:1036E800B4EEE77AF1EE10FA40F1968477EEC77AF5
:1036F800039BC7EE876AF0EE457AF5EEC06AF1EEF5
:1037080010FAA8BFB1EEE67ADFED1F6AB8BF9FEDE9
:10371800187A26EEC56AE6EE077A83ED007AC7FEC8
:10372800A67ACBED007AC823A8F80030FEF7FBBED6
:10373800000C025814000024C3F5A83E08C2012456
:10374800B8450024D8180024C015002430310024BE
:10375800341E0124B8D1020817B7D138CDCCCC3DDE
:103768006C3D0024D815002490290024D81B00247F
:10377800000000001F42093788310024B84900249E
:1037880094310024EC3B00240AD7233C50C2012486
:103798005C1500240C0000240B80039BC0ED007A0C
:1037A8001E46C3ED006A32462946CD48FDF70CF99E
:1037B800D6ED007AB1EE007AF0EEE77AF4EEC77A49
:1037C800F1EE10FA40F36582C64A77EEC77AF5EE55
:1037D800005ADFEDC56A92ED007A9FEDC46A67EE84
:1037E800A57A67EE266AC6ED007AA7EEE67AC7FEE6
:1037F800067AC2ED007ABE4B9B7E012B00F0C38592
:10380800BC4A2B46BC4841F25C261146FCF7C8FE70
:10381800B849BA4B2A460846464493ED000AFCF7D5
:10382800F3FDB74A2B46B748A2F58061FCF788FF3D
:10383800029B059AF1EE006A93F80E3ED2ED007AEB
:1038480003F00303B04867EEA67AB04907EE103AD2
:10385800A0EB0800A1EB0801A94AB8EEC77A27EE49
:10386800277AF2EC017A67EE877A9642FDEEE77ADC
:1038780017EE903A40F8123041F81230F1D1FFF7C4
:1038880014BA01228021A24811F0F0F8984B5B7E0F
:10389800002B00F0AB820023029A82F80C3E92F8CB
:1038A8000D3E0133DBB2372B88BF372382F80D3E3C
:1038B800FEF7CDBF01228021954811F0D7F8FEF719
:1038C800CEBF00228021924811F0D0F8029BB3F8B5
:1038D800E63C0A2B3EF6DDAC8E4ED6ED007AFEF7BE
:1038E800E0BC01224FF400518B4811F0BFF80122CF
:1038F8008021874811F0BAF8884B1E60B8F800306C
:10390800FEF765BC4FF496730299A8F8003001F2EF
:10391800DC4301F2DC71C3E9002208339942FAD191
:103928004FF480417E4811F0A7F818B1704B93F816
:1039380029302BB900224FF40051774811F096F83E
:10394800029AB2F8E63C013B9BB2952BA2F8E63C02
:1039580040F28E814FF07E526E4B1A60FEF7D3BD57
:10396800002D00F03B86049BDFF894B1581E6D4B88
:103978006D4980B2820003EB8000043B17465A462B
:10398800F1EC017AB3EC017A67EEA77A9842E7EE98
:10399800077AB1EEE77AA2EC017AF1D12B46504AC8
:1039A80057496248FCF7FCFD4E4B4D492A4693EDBA
:1039B800000A5F4B0846D3ED007A20EE270AFCF791
:1039C80023FD564B93ED007A5A4BB5EEC07AD3EDF2
:1039D800007AF1EE10FAC0F24B87B1EEC76A564B87
:1039E8003A46DFED564ADFED565A1A449FED555ACE
:1039F800043B554896463246D3ED006A02F580618D
:103A080090ED007A66EEA76A67EE277A26EEA67A28
:103A1800E3EC016AE0EC017AA7EEA77AF1EEC77A47
:103A2800B4EEE47AF1EE10FAC1ED007A35EEE77AF9
:103A3800D2ED006A77EEE57A66EE866A27EE057AB9
:103A4800C8BF27EE857A9E45F0EE467AE2EC016A19
:103A5800D2D1384B83ED006A039B1F4683ED007A71
:103A68003A4629461E48FCF7AFFFD7ED007A9FED8E
:103A7800377AF0EEE77AF4EEC77AF1EE10FA40F30F
:103A88000583184A77EEC77ADFED315A92ED007A4E
:103A9800DFED156A67EEA57A9FED2E6A67EE266A56
:103AA800C7ED007AA7EEE67AC7FE067AC2ED007A7D
:103AB800002D00F09D80049BB7EE003A2649F0EEF9
:103AC800082A013B9FED254A91ED016A9AB2244BE1
:103AD8001846D3ED015A184B03EB820359E000BF97
:103AE800847E0124048001246F12833A95BFD63363
:103AF80008C20124B845002430310024F8D2020855
:103B0800B8490024883100241CF3FFFF20F3FFFF8D
:103B1800000C025814000024000002580000002481
:103B2800000402585C1A002458170024983700240F
:103B3800F4D20208F45600245C1700240100804FD8
:103B48000000804700008037581A00240000004811
:103B580000000037ACC52737982900240000004929
:103B680090290024F5EEC07AB0EE647A76EEE76A22
:103B7800F1EE10FA37EE057A2FDDC7EE237A73EEF1
:103B8800677AC6ED007A67EE847A5345E6EC017AE7
:103B98002AD0B0EE657AFAEC015AB0EE465AB9EC82
:103BA800016A26EE077A25EE855A66EE067A77EEE2
:103BB800456AE5EEA57AF5EEC06AF1EE10FA77EE01
:103BC800C74A76EEA73ACDDC34EE857AC3EE877A1B
:103BD80077EEC37AC6ED007AD5E7C3EEA67A72EE21
:103BE800E77AC6ED007ACEE7C0ED015A81ED016AA9
:103BF800A34A2B46A3481146FCF7D2FCA049A24B86
:103C08002A46084693ED000AFCF7FEFB9F4A2B461E
:103C18009F48A2F58061FCF793FD029B059A93F8F3
:103C28000E3ED2ED007A41F25C2203F00303DFED91
:103C3800996A9948424407EE103A67EEA67A97497E
:103C4800A0EB0800B8EEC77AA1EB080127EE277AA7
:103C5800FBEC017A67EE877A5A45FDEEE77A17EEB4
:103C6800903A40F81B3041F81B30F1D1FFF71DB8EE
:103C7800002280218A4810F0F9FE8A4E4FF07E53C8
:103C88003360029BB3F8E63C632B7FF648A9FEF746
:103C98003ABC854B77EE677AF5EE005ADFED836A1A
:103CA80093ED007AB7EE006A039A67EEA57A67EE9D
:103CB800266AC2ED007AA7EEA67AC7FE467AC3ED59
:103CC800007A98E57A4A2B467A481146DFF828B2F6
:103CD800FCF766FC784A2B4678481146FCF760FCEE
:103CE80073499BED000A2A460846FCF78DFB72498A
:103CF8002A469BED000A0846FCF786FB002D00F0DB
:103D08001584049B6E4A03F1FF3B33461FFA8BFB75
:103D180002EB8B024FEA8B0BFAEC017AB9EC017AD1
:103D280067EEA77A4A45E7EE077AB1EEE77AA3ECA1
:103D3800017AF1D12B46634A51496348FCF730FCBC
:103D4800594B60492A4693ED000A604B0846D3ED6B
:103D5800007A20EE270AFCF757FB5D4B5D48B7EE6B
:103D6800002A5D4993ED004A08F54E639FED5B6AB2
:103D78009B44DFED5B4A9FED5B3A9FED4C5ADFEDCC
:103D88005A3AD0ED007A0B8808E067EE246AE5EE2F
:103D9800A67AC7FEA37AB34500F0B28096ED007A02
:103DA80065EE675A5A1C27EE277AF0EEC76AA6EC2A
:103DB800017AF4EEC66A36EEC67AF1EE10FAE4DC61
:103DC80093B276EE662A67EE835A07EE103AB8EE9B
:103DD800C77AB4EEC74AF1EE10FADCD862EEA46AEC
:103DE8000023E5EEA67AC7FEC27AD4E7029A92F8D3
:103DF8000C3E0133DBB23F2B88BF3F2382F80C3ED9
:103E08004DE583ED006A40F6FF73FFF725B877EEBE
:103E1800677A039B9FED356AC7EE876AF7EE007AEB
:103E2800F5EEC06AF1EE10FAACBFB1EEE67A9FED9E
:103E3800307A83ED007A2F4BD3ED006A26EE866A3E
:103E4800E6EE076AF4EEE76AF1EE10FA7FF733A9B7
:103E5800F0EE676AC3ED007AFFF72FB9DFF89CA090
:103E68004FF480610E4810F007FE4FF400618AF8A5
:103E780000000B4810F000FE8AF80100FFF721BA95
:103E8800B845002430310024B8D10208B8490024CC
:103E9800883100240AD7A33C1CF3FFFF20F3FFFF5F
:103EA800000C02581400002404800124CDCCCC3D21
:103EB8005817002454310024581A00246031002473
:103EC8005C1A0024847E012498370024F4D2020866
:103ED800B855002400000024F8560024000080474C
:103EE800000080370AD7233C6F12833A17B7D138BE
:103EF800000000000C0000246C310024006700243E
:103F08000B80039BC0ED007A1E46C3ED006A324663
:103F180029467948FCF758FDD6ED007A9FED777A67
:103F2800F0EEE77AF4EEC77AF1EE10FA40F3838206
:103F3800734A77EEC77ADFED735A92ED007ADFEDB8
:103F4800726A67EEA57A9FED716A67EE266AC6ED1A
:103F5800007AA7EEE67AC7FE067AC2ED007A6C4AC6
:103F68002B466C4841F25C261146FCF719FB684960
:103F7800694B2A460846464493ED000AFCF744FA82
:103F8800664A2B466648A2F58061FCF7D9FB029B7E
:103F9800059A93F80E3ED2ED007A03F00303DFEDA5
:103FA800616A614807EE103A67EEA67A5F49A0EBAE
:103FB8000800B8EEC77A594AA1EB080127EE277A1C
:103FC800F2EC017A67EE877A9642FDEEE77A17EE11
:103FD800903A40F8123041F81230F1D1FEF765BE40
:103FE80077EE466A94ED007A9FED476AB7EE005A7D
:103FF80009AB76EEA76A27EE066A0393C6EEA75AC0
:10400800F0EE477AE5EE867ACDED095AC7FEC57A15
:10401800C4ED007AFFF7C0BA77EE677A039BB7EE74
:10402800006AC7EE876AF0EE457AF5EEC06AF1EEEF
:1040380010FAA8BFB1EEE67ADFED3D6AB8BF9FED92
:104048003D7A65EE266AE6EE877A83ED007AC7FE4A
:10405800C67ACBED007AFFF766BB76EEE77A96ED87
:10406800007A9FED296AB0EE005A039BC7EEA65A64
:1040780067EE066AF0EE477AE6EEA57AC3ED005AD7
:10408800C7FEC57AC6ED007AFEF7A5BF1C4B77EED2
:10409800677ADFED1C5AB7EE006A93ED007ADFED20
:1040A800266A67EEA57A039A67EE266AC2ED007A59
:1040B800A7EEA67AC7FE467AC3ED007AF8E436EE94
:1040C800C77A87EE266ADFED1D6A67EEA66AB5EE47
:1040D800C06AF1EE10FAACBFB1EEC67A9FED157A60
:1040E800B0EE006AE6EE877A8DED097AC7FEC67AE9
:1040F800C6ED007AFEF705B9847E01240000004869
:1041080004800124000000376F12833AACC52737BA
:10411800B845002430310024B8D10208B849002439
:1041280088310024CDCCCC3E1CF3FFFF20F3FFFFE9
:1041380017B7D138000000000AD7233CD044583BB9
:104148004FF48041CB4810F097FC20B19AF800302A
:10415800002B40F0AC80C84A3723DFF874934FF443
:10416800807182F80D3E1746B9F84830C148A8F862
:104178000030C24B02925B7E002B08BF3F2682F8BC
:104188000C6E002210F072FC01220221BC4810F0D3
:104198006DFC6023A7F59662A7F5C661022006F0BC
:1041A80065FFB64B5B7B03F0FF02002B00F0D38169
:1041B800029B03F6C853D3ED007A09ABF5EEC07A3B
:1041C8000393B9F90A30F1EE10FA06EE903AF8EED8
:1041D800E66A48BFF1EE677AF4EEE76ACDED097A50
:1041E800F1EE10FA00F1C881DFF8E8B29BED007A31
:1041F800F4EEE76AF1EE10FA21DD76EEE77A039B3A
:10420800C7EEA65ADFED9F6A67EE266AF7EE007AD8
:10421800F5EEC05AF1EE10FAACBFB1EEE56A9FEDCB
:104228009A6AA6EE267A83ED006AB4EEE77AF1EE92
:1042380010FA40F39E81B0EE677ACBED007A934B8B
:104248009FED936A1A46DFF854C2924EA3F64400D3
:10425800F2EC016AA3F54171A3F6443E27EE267AF3
:10426800D2ED007AA3F6C442C7EE276A99F84D301A
:10427800B1EC017A5BB207EE903AF8EEE77A67EEB6
:10428800867A67EE877AE2EC017A964592EDBF7AF4
:10429800F0EC017A27EE267A67EEA67AACEC017A82
:1042A800E6EC017AE2D1B9F84830A8F800304FF4CA
:1042B8008041704810F0E0FB01287FF407A89AF8C5
:1042C8000030012B7FF402A8B8F80030002B3EF430
:1042D800FDAF4FF4C07200216F4813F02FFE4FF46A
:1042E800C07200216D4813F029FE4FF4C0720021FE
:1042F800684813F023FEFEF7E9BF4FF480415D489C
:1043080010F0BAFB012840F087809AF80030002BA3
:1043180040F0828002208AF80400FEF7EEBF9AF887
:1043280006201AB19AF805008AF806308AF80200C1
:10433800002840F07081514B1B7B022B00F0558206
:104348000023AAF80830FDF75CBF6023534A54499C
:104358005448FCF7BFF960234E4A51495248FCF7CC
:10436800B9F99BED005AFFF7AEB960234B4A4C49A7
:104378004C48FCF7AFF96023464A49494A48FCF7DC
:10438800A9F9FEF7ADB8494E2A46DFF84CA13168C5
:10439800DFF848910AEB81014548FCF755FB444B8F
:1043A80044490195D9F8002043480AEB820200915C
:1043B8001946FCF747FA069B404A93ED007AF0EE5F
:1043C800C77AFCEEE77A17EE903A02FB03F3002B6C
:1043D8004AD1029AD2F8103EB3F5006F02D20133E7
:1043E800C2F8103E364A336850882B44029980B28E
:1043F800528801F61461B3FBF0FC81ED007A91B2AA
:10440800EA1800FB1C333360B2FBF1F301FB132203
:10441800C9F80020FFF7F4B94FF48041154810F0AF
:104428002BFB012877D19AF80130002B73D18AF839
:104438000400FEF762BF234B77EE677ADFED225A5E
:10444800B7EE006A93ED007ADFED206A67EEA57A91
:10445800039A67EE266AC2ED007AA7EEA67AC7FE2F
:10446800467AC3ED007A7AE50023029AC2F8103E34
:10447800B8E700BF00040258DC48002408C2012441
:10448800000802586F12833A00000000B04500246B
:1044980000007C42581A0024EC38002458170024E5
:1044A800D8180024A0290024AC290024544E012443
:1044B800B84500240C6700243C3E012480969800EF
:1044C800605E01240480012400000037CDCCCC3D7F
:1044D80050C201240C000024584E0124585E0124C7
:1044E800CF4B2A46CF4993ED000ACF48FBF78CFF04
:1044F800039EFFF758B96023CB4ACC49CC48FCF758
:104508009FF8FEF7F4BF6023C74AC849C848FCF7BC
:1045180097F8FEF715BD4FF48041C64810F0ACFA85
:1045280001284ED09AF80400FEF7E7BE2B46BD4A94
:10453800BD49C148FCF734F8B94BBA492A4693ED4E
:10454800000ABE4B0846D3ED007A20EE270AFBF797
:104558005BFF039EDBE48021B94810F087FA0299DB
:1045680060230320A1F53762A1F54F6106F07EFDB7
:104578001EE68BED007A62E677EEE67ADFF8E8B2BF
:10458800DFEDB05A9FEDB06A87EEA67A039BB5EED1
:10459800C07AF1EE10FAA8BFF1EEC77A9BED007A67
:1045A800B8BFDFEDAA7A67EE255AA7EEE57AC3ED24
:1045B800007AB4EEC67AF1EE10FA0AD48BED007ADE
:1045C80016E6BAF8002040F201139A42AAD1002058
:1045D8002DE7B0EE467A8BED006A09E62B46914A44
:1045E8009B499548FBF7DCFF8D4B8E492A46D3ED56
:1045F800007A924B0846DFF858B293ED000A20EE95
:10460800270AFBF701FF039FFFF72ABA06F64C03B8
:104618000693FFF71FB8012800F07C81022800F0FC
:10462800678103287DF4EDAD9AF80830012BB8F8BE
:10463800023000F059815B0001229BB2AAF80A30CF
:1046480003238AF808208AF8093000238AF80730FB
:10465800FDF7D7BD6023744A74497548FBF7F0FF2E
:10466800FDF75FBE029E60230220A6F59662A6F5BE
:10467800C66106F0FBFC774B5B7B03F0FF02002B67
:1046880000F0A480A6F53766029BDFF8E09103F6F8
:10469800C853D3ED007A09ABF5EEC07A0393B9F9A4
:1046A8000A30F1EE10FA07EE103AB8EEC77A48BFB2
:1046B800F1EE677AB4EEE77ACDED097AF1EE10FA09
:1046C80062D4DFF8A4B1B4EEE77AF1EE10FA1EDD99
:1046D80077EE677A039BB7EE006AC7EE876ADBED71
:1046E800007AF5EEC06AF1EE10FAA8BFB1EEE67AEC
:1046F800DFED596AB8BF9FED557A67EEA66AE6EE18
:10470800877A83ED007AC7FEC67ACBED007A06F683
:104718004403DBED007AB4469FED506A1A46504ECA
:1047280050480CF5A861F2EC016AACF5407E67EEE2
:10473800A67A92ED007AACF59062C7EE876A99F88E
:104748004D30B1EC017A5BB207EE903AF8EEE77AB9
:1047580067EE867A67EE877AE2EC017A724592ED27
:10476800BF7AFCEC017A27EE267A67EEA67AA6ECE9
:10477800017AE0EC017AE2D1B9F84830BAF80A6077
:10478800A8F80030FEF7FABD77EEC77ADFF8D8B0A0
:104798009FED2C6ADFED2C5AC7EE876A039BF5EE76
:1047A800C06AF1EE10FAA8BFF1EEE67ADBED006A16
:1047B800B8BFDFED267A26EE666AE6EE276AC3ED15
:1047C800007AC6FEA56ACBED006A7CE7029F8021CD
:1047D8001B48A7F5376610F049F96023A7F54F6124
:1047E8003246032006F042FC4EE79AF807306BB9D0
:1047F8009AF80930032B09D19AF80830012BB8F838
:1048080002300CBF9B005B00AAF80A3001238AF82B
:10481800073095E502238AF80530FEF7CBBD00BFC7
:1048280004800124847E0124B8450024D81B002478
:10483800CC1500240004025898370024F4D202084A
:10484800000C0258CDCCCC3D0AD7233C0000000018
:10485800B849002408C201246F12833A00007C4240
:1048680058170024581A00240C00002450C20124B0
:10487800374B3A46DFED374A31461A449FED365AF0
:10488800DFED365A043B94469FED356A354AD3ED41
:10489800006A01F5806092ED007A66EEA76A67EE1D
:1048A800277A26EEA67AE3EC016AE2EC017AA7EE13
:1048B800A77AF1EEC77AB4EEE47AF1EE10FA37EEA1
:1048C800C57AC0ED007A75EE677AA1EC016A27EE29
:1048D800257AD8BF27EEA57A9C45F0EE467AD6D140
:1048E8009FED1F6AFFF7B5B89B0002229BB2A5E6B1
:1048F800B8F8003003B3B8F802309B009BB2AAF8AE
:104908000A3002238AF809304FF40073AAF80730F6
:10491800FDF777BCB8F80030A3B1B8F802305B00F7
:104928009BB2AAF80A3001238AF809304FF4807341
:10493800AAF80730FDF765BCB8F802309B000A33C7
:104948009BB2DCE7B8F8023005335B009BB2E8E7BE
:104958005C1700240100804F00008047000080376A
:1049680000000000581A002408B56E4B1A68920619
:1049780040F1D7809A686C4842F020029A601B691F
:104988006A4A1B037FD4B0F808CFB0F8003FB0F8EC
:10499800101F634402F55C6CB0F802EF0B44B0F8EA
:1049A800181F0B44B0F80A1F9B10714407EE903A89
:1049B800B0F80C3FF8EEE77ACCED007AB0F804CF07
:1049C8009C44B0F8143F9C44B0F81C3F9C44B0F899
:1049D800063F4FEAAC0C07EE10CAB0F80ECF63449E
:1049E800B0F816CFF8EEC76A6344B0F81ECF634438
:1049F800B0F81ACF9B1007EE103AB0F8123F02F643
:104A0800C4500B4402F6BC51B8EEC77A6344C1EDFA
:104A1800006A9B1006EE903AF8EEE66AC0ED006A6E
:104A2800DFED435A67EEA77A9FED426A02F6D85146
:104A380027EE257ADFED405A27EE866A02F6C8533C
:104A4800F4EEE57A81ED007A83ED006AF1EE10FA72
:104A580013DD66EEA66A9FED396AB0EE677A02F654
:104A6800D452F2EE045AE6EEC67AA6EE867A27EE1D
:104A7800257AC7EE276AC2ED006A12F095FBBDE8F9
:104A8800084012F0EFBAB0F888CDB0F8803DB0F821
:104A9800901D634402F55C6CB0F882ED0B44B0F8ED
:104AA800981D0B44B0F88A1D9B107144B0F88EED28
:104AB80007EE903AB0F88C3DF8EEE77ACCED007A44
:104AC800B0F884CD9C44B0F8943D9C44B0F89C3D2B
:104AD8009C44B0F8863D4FEAAC0C734407EE10CA0C
:104AE800B0F892CD6144B0F89ACDB8EEC77A614477
:104AF80002F6C45C891006EE901A02F6BC51F8EE74
:104B0800E66A81ED007AB0F89E1DCCED006AB0F837
:104B180096CD63440B449B1007EE103AB8EEC77A63
:104B28007EE708BD0000024040040024DC48002461
:104B3800BD007B3B97BF56347E96984A3333B33FCC
:104B48002DE9F04F2DED068B8DB00793CA4B0B90D6
:104B58001B78CDE90812002B00F0EF81C74F002524
:104B6800C74CDFEDC88A07F50056A04607EE905AF5
:104B78003B4608370135B8EEE70A93ED008A20EE88
:104B8800280AFBF7BFFC28EE000ABE42A8EC010A7F
:104B9800ECD10023BC4ABA49BC48FCF775FE4FF477
:104BA8000072B749B848FBF745FC9FEDB97AB94997
:104BB800002207EE902A0132F8EEE77AB2F5C07FBC
:104BC80067EE877AFCEEE77A17EE903A9BB204EB31
:104BD80083031B6841F8043BEBD1AF4A00250799D2
:104BE80013889FEDAE8A0133DFEDAD9A9FEDADAA34
:104BF8009BB28B4224BF0023A74A13809FEDAA9A39
:104C08000B9BAA46DFEDA98A2B4405931FFA8AF865
:104C1800099B434540F28E81A54FA64B97F8732018
:104C2800D7ED016A03EBC20397F97500597900289B
:104C38004FEA510107EE901AF8EEE77AB0EE677A7C
:104C4800D6EE887AA6EE887AFCEEE77ABCEEC77ACA
:104C580017EE902A17EE103A92B29BB240F3E78112
:104C6800C3F19F0305998B4200F37481C2F19F023F
:104C78008A4240F36F814FF480731D4699460A9328
:104C88004FEA8A0306938C4B03EB8A03D3ED007A31
:104C9800FCEEE77A17EE903A13F03F0111D0089B2B
:104CA800BDF814B05C1E079BE41AA4B2611A8EB258
:104CB800314601362A465846B6B20AF007FDB442D4
:104CC800F6D1BB8CF5EE005A724AB6EE006A9BB27A
:104CD80080217A4807EE903ABB8C9BB2F8EEE77ACF
:104CE80006EE903ABB8C67EE887AF8EEE66A9BB2DD
:104CF80007EE103AFCEEE77A66EE886AB8EEC77AF5
:104D0800FCEEE66A27EE087A16EE903ABCEEC77A11
:104D18001AFA83F39E3B02EB8303D3ED006A17EE86
:104D2800103A1AFA83F39C3B02EB830393ED007A63
:104D380017EE903A1AFA83F337EE267A9D3B27EE60
:104D4800257A02EB8303D3ED007A5D4BA7EE867AD2
:104D5800A3FB0823069A1B09053307EE903A564B26
:104D6800F8EEE77A9C1867EEA97A67EE877AC4EDC1
:104D7800007A0FF081FE002840F0428194ED007A1D
:104D8800454BFCEEC77A4F4C1B8817EE902A03EB75
:104D98008303120D0AEB831324F8132067EE097AB4
:104DA800F5EEC07AF1EE10FAC0F2DA80B1EEE76AF9
:104DB800B4EEE87AF0EE086AF1EE10FAF1EEC67A8F
:104DC80077EEE67A40F3CE803B4BF0EE4A7A069EC9
:104DD8001E44A8F1FB03442B86ED00AA40F2CC80C8
:104DE800B8F1000F40F09F81374E96F8063E002B31
:104DF80040F02C81354D4FF0820940F23D1497F870
:104E0800742095F82B004FF4807397F97510009073
:104E180097F8730010F08AFC4FF00108404608F13B
:104E2800010842F2041249461FFA88F80AF04EFCBB
:104E3800A045F3D109F111091FFA89F9B9F1C60F93
:104E4800EAD14FF0010882242146013442F20412CB
:104E58004046A4B20AF03AFCB42CF5D108F14F0848
:104E68001FFA88F8B8F5C67FEDD197F87430002B93
:104E780040F047812CE000BF0880012434FE002464
:104E8800FC560024DB0FC93B845E01245023002418
:104E980093A9AA3F14A00124381E01246F12033CD1
:104EA800CDCCCC3D000040420AD7233C844B214E58
:104EB80050C20124A01303083C1E0124000C025810
:104EC8008988888834680024DC48002408C20124C2
:104ED800D6F8E03C1022832140F209100293032304
:104EE800CDE9003200234FF4FC620EF037FA2B7C38
:104EF8000125AB427FF484AE984B10244FF6E07244
:104F0800B621029300231E200094019323460EF03D
:104F18008DF996F8B91D924A23460194DC2032F89F
:104F28001120B6210292092200924CF218620EF06A
:104F380015FA63E600238B4A13700DB0BDEC068B9F
:104F4800BDE8F08F9E3205998A4203DA9F338B427F
:104F5800BFF691AE002344F21F291D460A938FE63F
:104F6800F8EE087A804B069E1E44A8F1FB03442BFA
:104F7800C6ED007A3FF634AF7C4B1A7A07EE102A5A
:104F8800B8EEC77AB4EEE77AFCEEE77AF1EE10FAFB
:104F980017EE90BA48BF83F808B01FFA8BFBBBF135
:104FA800000F20D0089B0AEE905ABDF814004FF06D
:104FB8001F085E1E079B0546F61AB6B233465E46C4
:104FC8009B46B208ABEB0601013E284608FA02F2FE
:104FD80089B2B6B249EA020292B20AF077FB002E11
:104FE800EFD11AEE905A97F86C301BB9604B1B7CC6
:104FF8005FB283B3059B0AF1010A0133059305E605
:1050080094ED007AB7F85E205A4BFCEEC77AC2F3EB
:105018000B12594C1B88113217EE901A03EB8303BD
:1050280021FA02F20AEB831324F81320B6E689D199
:10503800C1F19F03059A934203DC9F319142BFF669
:105048001AAE44F21F2905460A9019E60123484D75
:1050580087F874304BE7079B002B3CD01A46089B17
:10506800BDF814809E1A99469346B6B20EE034F8FD
:10507800123001364046013713FB03F3B6B243EA58
:10508800050292B20AF022FBB14524D0394B1FFA2F
:1050980087FE3146B3F800C00BEB0C03ACEB0702FC
:1050A800F445A3EB070302EB820203EB83030AEB4D
:1050B80082120AEB8313DAD234F8133001360A9AD3
:1050C800404613FB03F3B6B201371A4392B20AF013
:1050D800FDFAB145DAD1059B023B112B15D9059B89
:1050E8009D3B052B24D8254B012044F20822B621EC
:1050F80002930C23CDE9003004239D200EF096F88E
:1051080078E7013B87F87430E2E61D4B012444F24E
:105118000822B62102930C230220CDE9003404238F
:105128000EF084F866E7FCEEE77A17EE90BA34E7FB
:10513800059BA3F59773102B3FF65CAF104B01212D
:1051480044F208224FF4977002930C23CDE9003102
:105158000423B6210EF06AF84CE700BFA4BE02088B
:1051680018C10124088001243C1E012408A0012440
:1051780008C20124381E012434680024A0BE020895
:105188009CBE0208154B5B7943B14FF0B042D2F890
:10519800883043F48043C2F88830704710B54FF424
:1051A80080410F480FF068FC044668B90D4B1B7925
:1051B8005BB2012B08DD0C4BA3F80C0E12F00AFEB3
:1051C8002146204612F0B4FD4FF0B042D2F88830A4
:1051D80043F48043C2F8883010BD00BF08C20124E0
:1051E80000040258D8C20124DC4800241B4B1B7859
:1051F800182B00D0704730B5002485B0EF2340F25B
:105208003F1221462046009420250AF0E3FB49215D
:1052180002220823982000924CF21862CDE901512D
:105228006E210EF09BF8204612F0D4FD2146204650
:1052380012F07EFD4FF4FA6007F0D8FF29460848BF
:105248000FF01AFC08B105B030BD01222946044808
:1052580005B0BDE830400FF009BC00BFD7C201243B
:105268000004025870B5264C82B0237803B3254D4C
:105278002A78EAB9697801F0FF02C9B9224E96F88E
:105288006D10012916D001234FF480411F48CDE944
:1052980000230FF031FA23780E2B24D00F2B09D1DD
:1052A80096F86D3023B9EB7CDB4303F00103EB7414
:1052B80002B070BD172B0ED1AB7DDB4303F00103A9
:1052C800AB75AB7D03F0FF02C3B13C2373830123AD
:1052D80086F87430ECE7182BEAD1EB7DDB4303F05A
:1052E8000103EB75E4E7AB7CDB4303F00103AB742C
:1052F800AB7C002BDCD07823B383D9E77283E6E755
:10530800D7C2012408C2012450C201240004025853
:1053180008B508F021FB084B187028B1074BC822C4
:105328002128A3F8662000D008BD054A1378DB437E
:1053380003F00103137008BDD7C2012450C2012431
:1053480008C201242DE9F04F944E87B0337833B961
:10535800934C03F0FF002378002B40F00582914F17
:105368007378012BDAB200F069828F4B0024049322
:105378001B7886F82640012B00F05A84B7F868306D
:105388009BB22BB1B7F86830013B9BB2A7F86830E5
:10539800B7F868309BB213B97370A7F86830F3791F
:1053A80003F0FF00002B00F0FA82737803F0FF028D
:1053B800002B40F0D6817D4C7D4D637929885BB206
:1053C800994200F005837B4BDFF8F89104937379D9
:1053D800012BD9B200F06A832168774B994202D237
:1053E80023600023637121686379DFF8DC815BB295
:1053F80003EB830308EB83039B6899421CD2216863
:1054080063795BB2013B03EB830308EB83031B69FE
:10541800994211D96379013B5BB263716379F96B86
:105428005BB203EB830308EB83031B69B3FBF1F364
:10543800F96B01FB03F32360216863795BB203EB2B
:10544800830308EB83031B6999421CD9216863799C
:105458005BB2013303EB830308EB83039B68994238
:1054680011D2637901335BB263716379F96B5BB213
:1054780003EB830308EB83039B68B3FBF1F3F96B3E
:1054880001FB03F3236021684C4B994200F2B3827D
:105498004B4B1978012903D103217174002119702C
:1054A800A168454B994200D2A360A168637B5BB2B7
:1054B80003EB830308EB83039B6899421CD2A16822
:1054C800637B5BB2013B03EB830308EB83031B693C
:1054D800994211D9637B013B5BB26373637BF96BC0
:1054E8005BB203EB830308EB83031B69B3FBF1F3A4
:1054F800F96B01FB03F3A360A168637B5BB203EB69
:10550800830308EB83031B6999421DD9A168637B58
:105518005BB2013303EB830308EB83039B68994277
:1055280012D2637B01335BB26373637BF96B5BB24B
:1055380003EB830308EB8308D8F80830B3FBF1F3D7
:10554800F96B01FB03F3A360A1681C4B994208D9CE
:10555800F96BB3FBF1F3F96B01FB03F3A3600923C8
:1055680063736379607987F83030617943B20120D9
:10557800DFF858A049B29840CAF80000092900F29B
:10558800BD87DFE811F0AA05B605C1057E05FD0453
:105598007305890594059F05CD0500BF08C2012440
:1055A800D7C2012450C20124DEC10124D8C201247B
:1055B8001AC00124F0C10124E067350080F93703DF
:1055C80038C2012414C101242CC302081CC00124C0
:1055D8000023DFF86082DFF860B288F8B93D09235C
:1055E800ABF800300A46894840210FF03FFABBF873
:1055F800002020218548C2F340020FF037FABBF89B
:10560800002010218148C2F380020FF02FFABBF866
:10561800002008217D48C2F3C0020FF027FA0022BB
:1056280001217A480FF022FA00224FF4805178487D
:105638000FF01CFA0022022174480FF017FA00221A
:105648004FF4806172480FF011FA002204216F486C
:105658000FF00CFA98F8B90D01216E4BDFED6E6A68
:105668001B5C6E4E643B07EE903A6D4B33F810307E
:10567800F8EEE77A07EE103A00F24E7367EEA67A74
:10568800B8EEC77A06EB830327EE267A83ED007A15
:1056980000F5EB6300F2B27006EB8303C3ED007A0A
:1056A800FCF788FAC0B2431E3E2B40F22387202322
:1056B80088F8E43C97F82330002B00F0E28632208B
:1056C8007881012B00F0C1862379032B00F0B58681
:1056D80023795BB2042B00F3B086C82840F3DF8639
:1056E8006379C820092B788100F0AF8600EB80032E
:1056F80003EB83035B0007EE903AF8EEE77AB1EE2E
:10570800E76A07EE900AF8EEE76A637900289FEDEA
:10571800457A5BB203F6EC6306EB43039B8807EE1E
:10572800903A414BF8EEE77A67EE877A67EE867A29
:10573800C3ED007AC0F2D886B1EEE67AF1EEC77A08
:10574800B1EEE77A394B0499C3ED007A83ED027A1A
:1057580063795BB22B80A37922685BB20A60A9F8EF
:10576800003007B0BDE8F08F202B00F05A81304F91
:105778007378012BDAB27FF4F3AD002386F8262084
:1057880087F8742033767379002B00F06D83737972
:10579800012B7FF4E5AD2378023B182B3FF6E0ADF3
:1057A80001A252F823F000BF1F64000869530008E3
:1057B80069530008FB63000869530008695300082F
:1057C800D76300086953000869530008B3630008E9
:1057D80069530008695300082963000869530008E1
:1057E8006953000877630008695300086953000883
:1057F80029630008695300086953000853630008C7
:1058080069530008695300089B630008000C02589C
:10581800000802582CC101246F12833ADC38002496
:1058280018C101240000FA43B0450024AC45002407
:1058380050C20124DC48002420C00124924986F883
:1058480026200B780491002B00F0D3807379642212
:105858008E4C012B8E4B1A8000F006826079042151
:10586800DFF8408240B200F2DB10800080B2FCF723
:10587800A1F92060226863795BB203EB830308EB2C
:1058880083039B689A4280F0C08063795BB203EB24
:10589800830308EB8303DB6823606079012140B24E
:1058A80000F2267080B2FCF785F940B220712379A6
:1058B8005BB2072B01DD0723237123791B0601D572
:1058C80000232371727997F91030724DC3EBC3032B
:1058D800217935F81200184400F5987080B2FCF769
:1058E80019F9A079012140B200F24E7080B2FCF79C
:1058F80061F940B2E07123795BB2052BE3795BB2C1
:1059080000F38982052B01DD0523E371E3795BB29E
:10591800002B01DC0023E37173794FF0180ADFF8DC
:10592800849135F81300002597F91030AB46E179DA
:10593800C3EBC303184400F5997080B2FCF7EAF88A
:105948000597617905EB850042F204134EF67D72E6
:1059580049B208EB800C8D427CD00135BCF80210AE
:1059680038F8200009F11409CDE900AB59F8107C8A
:1059780002970DF05BFC0A2DE3D16379059F5BB2BA
:10598800092B3FF6FBACDFE813F0D903DE03E8038D
:10599800E303ED036A026A0261006100F203049AFC
:1059A8000123009082217070107040F23F12F37151
:1059B800EF230AF00FF8B7F868309BB2012B7FF697
:1059C800F4ACB7F86830013B9BB2A7F86830ECE458
:1059D800A379DFF8D4905BB2B9F8001099422E4B46
:1059E80004937FF4F4AC21681B6899427FF4EFAC10
:1059F800B7E60A702AE7F96BB3FBF1F3F96B01FB21
:105A080003F323600923637142E5226863795BB27B
:105A180003EB830308EB83031B699A427FF63DAFD0
:105A280033E77278EF2300908221D2431B4F02F0B4
:105A38000102727040F23F1209F0CCFF7378012B1B
:105A48000CBF64230A23A7F8683091E6144B01229F
:105A58001A8093E405EB8503013509F1140938F838
:105A68002300CDE900AB59F8102C029208EB830211
:105A780042F2041351884FF478420DF0D7FB0A2DF7
:105A88007FF45FAF79E700BFDEC10124D8C20124EB
:105A9800DC38002428C30208F0C1012450C20124C4
:105AA80020C001242CC3020814C101242268664BBB
:105AB8009A4200D223602268A379DFF8A8815BB2FA
:105AC80003EB830308EB83039B689A420BD222689B
